:100000000C9453040C9423150C949A040C949A04A5
:100010000C949A040C949A040C949A040C949A04E8
:100020000C949A040C949A040C94A8290C947A2A9F
:100030000C94BF230C949A040C949A040C949A0484
:100040000C949A040C949A040C949A040C949A04B8
:100050000C949A040C9427240C949A040C949A04FB
:100060000C949A040C949A040C949A040C949A0498
:100070000C949A040C949A040C949A040C949A0488
:100080000C949A040C949A040C949A040C949A0478
:100090000C949A040C949A040C949A040C949A0468
:1000A0000C949A040C949A040C949A041006130667
:1000B00018061D06220627062C06310636063B06C4
:1000C000400645067C067C067C067C067C067C0693
:1000D0007C067C06A719A719D919D919261A891BD4
:1000E000891B891B461AE31AF41AF41A551B5E1B66
:1000F000891B821B071C071C191C191C101C191CAE
:10010000191C191C071C071C151C191C191C151C73
:10011000E72A0E2B002C0E2B002C5A2B7D2B002CAB
:10012000D32BE22B1E001F00200021002200230001
:100130002B0014001A000800150017002900040005
:100140001600070009000A00E1001D001B00060060
:1001500019000500000000000251E300E200E00089
:100160002E002D002700260025002400310013005A
:1001700012000C0018001C00340033000F000E00A9
:100180000D000B00E50038003700360010001100AC
:10019000000000002A0001512C00280035001F003B
:1001A00020002100220023002B0014001A00080068
:1001B00015001700290004001600070009000A00B6
:1001C000E1001D001B0006001900050000000000F2
:1001D0000000E300E200E0002E002D0027002600D2
:1001E000250024003100130012000C0030002F0005
:1001F000340033004F00520051005000E500380039
:10020000370036004E004B00000000002A000100BD
:100210002C0028003A003B003C003D003E003F001F
:1002200000000000000000000000A8000000000026
:10023000000000000000A900000000000000000015
:100240000000AA0000000000010000000000000003
:10025000450044004300420041004000000000000F
:1002600000000000C25C000000000000C75CC55C2C
:10027000C95CBB0000000000C85CC65CCA5CBC0076
:10028000000000000000010000000000444542554D
:10029000473A2064697361626C65642E0A004445C4
:1002A0004255473A20656E61626C65642E0A000A09
:1002B0000025303862003A200025303258000A729A
:1002C0002F632030313233343536370A007267629B
:1002D0006C696768742073657420687376205B4E60
:1002E0004F454550524F4D5D3A2025752C25752CB4
:1002F00025750A007267626C69676874207365749B
:1003000020687376205B454550524F4D5D3A20255D
:10031000752C25752C25750A007267626C696768F3
:10032000742064697361626C65205B4E4F45455073
:10033000524F4D5D3A207267626C696768745F6303
:100340006F6E6669672E656E61626C65203D202563
:10035000750A007267626C6967687420646973610A
:10036000626C65205B454550524F4D5D3A20726787
:10037000626C696768745F636F6E6669672E656E2D
:1003800061626C65203D2025750A007267626C69A8
:1003900067687420656E61626C65205B45455052EC
:1003A0004F4D5D3A207267626C696768745F636F76
:1003B0006E6669672E656E61626C65203D202575ED
:1003C0000A007267626C6967687420746F67676C93
:1003D00065205B454550524F4D5D3A207267626C17
:1003E000696768745F636F6E6669672E656E6162C8
:1003F0006C65203D2025750A007267626C6967682C
:1004000074206D6F6465205B4E4F454550524F4DD3
:100410005D3A2025750A007267626C69676874200E
:100420006D6F6465205B454550524F4D5D3A202508
:10043000750A007267626C696768745F696E6974D7
:10044000207267626C696768745F636F6E66696764
:100450002E6D6F6465203D20302E205772697465C3
:100460002064656661756C742076616C75657320B7
:10047000746F20454550524F4D2E0A007267626CD2
:10048000696768745F696E6974206565636F6E661D
:100490006967206973206E6F7420656E61626C6598
:1004A000642E0A007267626C696768745F696E69BE
:1004B00074207374617274210A007267626C6967D8
:1004C00068745F696E69742063616C6C65642E0A80
:1004D000007267626C696768745F636F6E666967F4
:1004E0002E7370656564203D2025640A0072676282
:1004F0006C696768745F636F6E6669672E76616C9E
:10050000203D2025640A007267626C696768745F29
:10051000636F6E6669672E736174203D2025640ADF
:10052000007267626C696768745F636F6E666967A3
:100530002E687565203D2025640A007267686C6925
:100540006768745F636F6E6669672E6D6F646520A0
:100550003D2025640A007267626C696768745F6396
:100560006F6E6669672E656E61626C65203D202541
:10057000640A007267626C696768745F636F6E66B5
:10058000696720454550524F4D3A0A006261636BDE
:100590006C6967687420737465703A2025750A0069
:1005A0006261636B6C696768742064697361626C13
:1005B000650A006261636B6C6967687420656E61CF
:1005C000626C650A006261636B6C696768742074B1
:1005D0006F67676C653A2025750A006261636B6C12
:1005E000696768742064656372656173653A202584
:1005F000750A006261636B6C6967687420696E6379
:1006000072656173653A2025750A000001010101D8
:1006100001010101010202020202020202020303BD
:10062000030303030303040404040404040505058D
:10063000050506060606060707070707080808084F
:10064000090909090A0A0A0B0B0B0C0C0C0D0D0DFC
:100650000E0E0E0F0F0F1010111111121213131492
:1006600014151516161717181819191A1A1B1B1C0A
:100670001D1D1E1E1F202021222223242425262664
:10068000272829292A2B2C2D2D2E2F303132323399
:100690003435363738393A3B3C3D3E3F40414243A2
:1006A0004445464748494A4C4D4E4F505153545586
:1006B0005658595A5B5D5E5F616264656668696B36
:1006C0006C6D6F7072737577787A7B7D7E808283B4
:1006D0008587888A8C8E8F91939596989A9C9EA0F8
:1006E000A2A3A5A7A9ABADAFB1B3B5B7BABCBEC005
:1006F000C2C4C6C9CBCDCFD1D4D6D8DBDDDFE2E4CE
:10070000E7E9EBEEF0F3F5F8FAFDFF0A00253032E9
:100710005820006B6579626F6172645F7265706FFB
:1007200072743A20000A0025303258006B657962F5
:100730006F6172645F7365745F6C65643A20005B1F
:10074000735D004B6579626F6172642073746172CE
:10075000742E0A005B575D005B535D005B525D00C9
:100760005B445D005B435D000403300000001C033C
:10077000490072006900730020004B006500790099
:1007800062006F0061007200640000000E034B0005
:1007900065006500620069006F0000000403090441
:1007A00009025B00030100A0FA0904000001030133
:1007B0000100092111010001224000070581030801
:1007C000000A0904010001030000000921110100D1
:1007D000012236000705820320000A0904020002F4
:1007E00003000000092111010001222200070583F6
:1007F000032000010705030320000112011001007E
:1008000000000810CB56120003010203010631FF5D
:100810000974A1010975150026FF0095207508814E
:10082000020976150026FF00952075089102C00583
:10083000010980A10185031A81002A8300160100A5
:10084000260300950175108100C0050C0901A10166
:1008500085041A01002A9C02160100269C029501BB
:1008600075108100C005010906A101050719E029DD
:10087000E71500250195087501810295017508812C
:10088000010507190029FF150026FF0095067508C8
:100890008100050819012905950575019102950149
:1008A00075039101C00011241FBECFEFDAE0DEBF57
:1008B000CDBF04B603FE27C080916202909163020F
:1008C000A0916402B09165028730904BA740B04B75
:1008D000D1F410926202109263021092640210929C
:1008E000650214BE84B7877F84BF0FB6F894A895BD
:1008F00080916000886180936000109260000FBE5C
:10090000E0E0F8E3099511E0A0E0B1E0EEEDF9E5F3
:1009100002C005900D92A235B107D9F722E0A2E5F9
:10092000B1E001C01D92A236B207E1F70E94C826CD
:100930000C94ED2C0C940000FF93EF93E091520186
:10094000F0915301309709F00995EF91FF910895C7
:10095000FC018591803011F0EFDFFBCF0895FF2778
:10096000E0E230E247FF0CC0419597FF09C0EDE29D
:100970006095709580959095611D711D811D911DEB
:1009800027FF02C0219530E350E2AA27660F771FA8
:10099000881F991FAA1FA41710F0A41B63955A95CE
:1009A000A9F7AA3008F0A95FA05DAF93F395611590
:1009B00071058105910541F7ED3211F4EF93F3953F
:1009C000F21718F43F93F395FBCF8F91B5DFFA95AB
:1009D000E1F70895E991F9918591803021F0853210
:1009E00019F0AADFF9CF089520E0E8945591553227
:1009F000C1F3503311F4689455915A3348F450536D
:100A000090F3220F022E220F220F200D250FF4CF7C
:100A10000EF4219589919991533619F3533729F1A1
:100A2000533559F1BC0188279927E8945C3621F4A5
:100A30008991999168945591543639F446EF7EF036
:100A400077FF0DC08FEF9FEF0AC055374AE039F0AE
:100A5000583540E121F0523642E009F00895FF9305
:100A6000EF937DDFEF91FF91B7CFFF93EF93FC0101
:100A700081918030B9F360DFFBCFFF93EF9368DFA4
:100A8000F1CFDF93CF93CDB7DEB72596A3DFCF911C
:100A9000DF91089581E0089581E008950C944C055C
:100AA0001F93CF93DF9300D000D01F92CDB7DEB756
:100AB00049835A8320919D0189819A81211112C015
:100AC000662349F00E942E21182F682F89819A8170
:100AD0000E94D12003C00E940121182F69817A81D0
:100AE000812F04C00E942E2169817A810F900F907E
:100AF0000F900F900F90DF91CF911F910C9487066C
:100B0000FC01408151816281738184810C94500584
:100B10000E947922811102C00E9422230E94971113
:100B20000E94E1110C945A090E9496110E94011230
:100B30000C945D0908950C949A0581E008950C9435
:100B40009D05CF93C82F0E949B058C2F0E949F0567
:100B5000CF91089508950E94F71B0E94AA052FEFD8
:100B600084E39CE0215080409040E1F700C0000009
:100B70000C944D24EF92FF920F931F93CF937C011F
:100B80000E9480058C01B7010E944E05882309F45C
:100B9000B2C0B701C8010E94FE12882309F4ABC09D
:100BA000B701C8010E943F13882309F4A4C0F701CC
:100BB000C281CC2341F101308CE5180761F00E3D74
:100BC000ECE51E07E9F00115FCE51F0709F061C01F
:100BD0000E94AB0590C080911302C82FC095C170D0
:100BE000C0FB80F980931302CC2329F08EE992E0B8
:100BF0000E94A80480C08CE892E00E94A8047CC0F7
:100C00000E94222378C00E94AE218272F801E25C29
:100C1000FC45E431F105E8F5EA5AFF4F0C94852CC8
:100C20000E94130F69C0882329F00E94F20E64C04D
:100C30008823D9F30E94E50E5FC0882329F00E9423
:100C4000600E5AC08823D9F30E94530E55C08823E2
:100C500029F00E947E0E50C08823D9F30E946F0EA7
:100C60004BC0882329F00E949C0E46C08823D9F3EC
:100C70000E948D0E41C0882329F00E94240D3CC0A3
:100C80008823D9F30E94130D37C081E00E94F50E2E
:100C900033C006311C4539F50E94AE21282FF701DB
:100CA00082814091130150911401882379F02A7AAE
:100CB00091E009F490E090935401911102C069E22F
:100CC00001C065E3CA010E945B230AC08091540100
:100CD000811102C069E201C065E3CA010E945D237F
:100CE0000E94FA2108C0C701CF911F910F91FF9078
:100CF000EF900C944A05C0E08C2FCF911F910F917B
:100D0000FF90EF90089580E090E00895089596E0B8
:100D1000799FF00111249CE3899FE00DF11D1124BE
:100D2000E60FF11DEE0FFF1FEC5DFE4F85919491D4
:100D30000895880F991FFC01E155FD4F859194910D
:100D40000895CF93DF930E9487060E948208EC01EA
:100D5000811522E5920708F046C0811531E5930719
:100D600008F052C1883E910500F5803E910508F0DB
:100D7000C5C1883A910570F4853A910508F0B1C073
:100D80008130910509F4BAC108F46BC1049708F0E9
:100D9000B5C167C18F3B910508F4AEC0803C910599
:100DA00008F45FC1805C910906C1811540E4940795
:100DB00090F4C11580E3D80708F001C1C11521E006
:100DC000D20708F44EC1C11530E2D30708F496C12A
:100DD000CE019F70F0C0811540E5940708F0F9C07E
:100DE000DF70D06A8BC1C11589E5D807B8F5C11588
:100DF00028E5D20708F021C1C11534E5D307D0F4A6
:100E00002C2F26952695CE0183709927C115D345A1
:100E100008F0FFC040E2249F90011124C1E0D0E01F
:100E200002C0CC0FDD1F8A95E2F72C2B3D2BE90188
:100E3000DC6864C1C11585E5D80708F4F9C0C1159F
:100E400026E5D20708F00DC18C2F0E9416098F717C
:100E5000C82FD0E0DC2FCC27D06250C1CD3B3CE581
:100E6000D30709F4F5C0E0F4CB3B8CE5D80709F4CF
:100E7000E9C008F0EAC0C1153AE5D30708F0F1C0AF
:100E80008C2F8F700E94160994E0D695C7959A957D
:100E9000E1F7CF70D0E0DC2FCC27D069C82B2EC172
:100EA000C03C4CE5D40709F4D9C060F4CE3B2CE536
:100EB000D20709F4D0C0CF3BDC4509F0D2C0C0E076
:100EC000D2ED1CC1CE0190568115904208F0C9C0E8
:100ED0008D2F8F710E941609DD27D0628F71D82B5C
:100EE0000DC1853A910509F4BFC0863A910509F014
:100EF000BEC0C2E8D0E402C1883A910509F4BAC084
:100F0000893A910509F4B9C08A3A910509F4B8C043
:100F10008B3A910509F4B7C08C3A910509F4B6C033
:100F20008B3B910509F4B5C08C3B910509F4B4C025
:100F30008D3A910509F4B3C0803B910509F4B2C024
:100F40008E3A910509F4B1C08F3A910509F4B0C009
:100F5000813B910509F4AFC0823B910509F4AEC015
:100F6000833B910509F4ADC0843B910509F4ACC005
:100F7000853B910509F4ABC0863B910509F4AAC0F5
:100F8000873B910509F4A9C0883B910509F4A8C0E5
:100F9000893B910509F4A7C08D3B910509F4A6C0D2
:100FA0008E3B910509F4A5C08A3B910509F4A4C0C4
:100FB000C0E0D4E4A3C00E949906EC019FC0CE011A
:100FC0009927D3FF03C0EC01D86C98C0EC01D06C1A
:100FD00095C0837021E030E002C0220F331F8A9554
:100FE000E2F73C68CE0174E0969587957A95E1F733
:100FF0008370382BCF70C695C69580E2C89FE001FC
:101000001124C22BD32B7AC0D82FCC27C16FD06A22
:1010100075C040E2249F90011124C1E0D0E002C0DD
:10102000CC0FDD1F8A95E2F7C22BD32BDA6866C09E
:10103000DC2FCC27C46FD06A61C0DC2FCC27C06FF7
:10104000D06A5CC0C0E0D4ED59C0C0E0D5ED56C058
:10105000C0E0D1ED53C0C0E0D0ED50C0C0E0D3ED52
:101060004DC0C0E0D0E04AC0C1E8D0E447C0C3E80A
:10107000D0E444C0C2EED4E441C0C9EED4E43EC0E2
:10108000CAEED4E43BC0C5EBD4E438C0C6EBD4E42C
:1010900035C0C3EBD4E432C0C4EBD4E42FC0C7EBFB
:1010A000D4E42CC0CCECD4E429C0CDECD4E426C0EC
:1010B000C3E8D5E423C0CAE8D5E420C0C2E9D5E43A
:1010C0001DC0C4E9D5E41AC0C1E2D6E417C0C3E22A
:1010D000D6E414C0C4E2D6E411C0C5E2D6E40EC022
:1010E000C6E2D6E40BC0C7E2D6E408C0CFE6D4E43B
:1010F00005C0C0E7D4E402C0CAE2D6E4CE01DF9165
:10110000CF9108958238910569F1B0F4813391054A
:1011100009F46DC048F48932910509F463C08A323C
:10112000910509F469C008958533910509F455C006
:1011300089339105B9F00895833E910569F138F43A
:10114000803E9105B1F0823E910509F10895863EF9
:101150009105A9F1873E9105B9F1843E910509F009
:1011600064C023C02091530220FD4FC021FD4DC01B
:1011700008958091530280FD44C08091540280FF05
:1011800044C08091530284FD42C083EE4DC08091E3
:10119000530282FF38C0F5CF8091530282FD33C0E5
:1011A0008091540280FD31C0ECCF8091540281FFC8
:1011B00032C08091530284FD2AC087EE35C08091F1
:1011C000530283FF26C0F5CF8091530283FD21C0D7
:1011D0008091540281FD1FC0ECCF8091530285FDA8
:1011E0001CC01DC08091530285FD19C016C080919E
:1011F000530286FD16C017C08091530286FD13C0AE
:1012000010C089E311C082EE0FC080EE0DC080E0F7
:101210000BC086EE09C084EE07C089E205C085E3F5
:1012200003C08AE201C081E390E0089590915302E7
:1012300092FF0DC0282F2871283019F4877F846011
:1012400006C0282F2471243011F48B7F886093FF0F
:101250000DC0282F2871283119F4877E846106C0BB
:10126000282F2471243111F48B7E8861209154023F
:1012700020FF0DC0382F3871383019F4877F816016
:1012800006C0382F3171313011F48E7F886021FF14
:101290000DC0282F2871283119F4877E816106C07E
:1012A000282F2171213111F48E7E886194FD877E73
:1012B000089508950C94590908950C945C090895B3
:1012C000E82FF0E0E55AFE4F80810895CF92DF923B
:1012D000EF92FF920F931F93CF93DF938EEB92E0E9
:1012E0000E94A8048BE5E82E81E0F82EC0E0D0E053
:1012F00099EBC92E92E0D92E01EB12E0DF93CF9348
:10130000DF92CF920E94410586EB92E00E94A804F2
:10131000F70181917F010E9463221F928F931F9397
:101320000F930E9441058FEA92E00E94A804219643
:101330008DB79EB708960FB6F8949EBF0FBE8DBFAF
:10134000CA30D105D9F6DF91CF911F910F91FF904F
:10135000EF90DF90CF9008950E94200B80910001C4
:1013600080910001811102C095E001C090E090934E
:10137000240285E0891B80932302A6E2B1E041E0CC
:1013800050E025E02A0F8D91E82FE295EF70F0E014
:1013900031A18F70BA0102C0660F771F8A95E2F7FC
:1013A000CB01962F9095932391A392A1892B82A391
:1013B0002A13E9CFA0E2B1E041E050E026E02A0F95
:1013C0008D91E82FE295EF70F0E031A18F70BA01B6
:1013D00002C0660F771F8A95E2F7CB01962F909592
:1013E000932391A392A1892B82A32A13E9CFEBE542
:1013F000F1E08AE08E0F11928E13FDCF85E00E94FE
:10140000C80A0C9488057F928F929F92AF92BF92E8
:10141000CF92DF92EF92FF920F931F93CF93DF93C0
:1014200066E271E0A6E5B1E0812C01E010E095E014
:101430009A0F7D017C901C92EB018991BE01E82FEF
:10144000E295EF70F0E021A18F70A80101C0440F78
:101450008A95EAF7822F842B81A322A1842F80957D
:10146000282322A3D0EADA95F1F7C0E2AC2EC1E03E
:10147000BC2E20E030E0E50199905E01C92CC294B9
:101480005FE0C522D12CE601C8A0D12CD92DDF7098
:1014900002C0D594C794DA95E2F7C0FC07C0680192
:1014A000022E01C0CC0C0A94EAF702C0C12CD12C48
:1014B000DC90CD28CC922F5F3F4F26303105D9F6F6
:1014C00021A1822381A382A1482B42A3119681E00E
:1014D000F7012081721201C080E0882A9A13A9CFF7
:1014E0006091240270E0655A7E4F282D45E086E524
:1014F00091E00E94C90A882DDF91CF911F910F9131
:10150000FF90EF90DF90CF90BF90AF909F908F9023
:101510007F900895CF930E94030AC82F0E94030B67
:10152000882339F120912302822F90E0855A9E4F23
:101530000E945E0B811118C0909155019F5F90939E
:101540005501963098F04091230220E030E050E0C1
:10155000F901E40FF51FE55AFE4F10822F5F3F4F50
:1015600025303105A9F702C0109255010E9494055B
:101570000CC020912402822F90E0855A9E4F0E9439
:101580008B0B0E9401120E945F098C2FCF9108954E
:101590000895FF920F931F93CF93DF938C01F62E44
:1015A000D72FC42F222349F081E0809367010E9446
:1015B000F1239093660180936501809167018823F0
:1015C000C1F080916501909166010E94FD2306970C
:1015D00080F0EF2DFD2FD8014C2F50E0CD01801B66
:1015E000910B841795071CF48D918193F7CF10927E
:1015F0006701DF91CF911F910F91FF90089580981F
:101600008FB18170089580916801811112C080911D
:10161000D80080618093D8008AE18A95F1F700C0F4
:101620008091D90080FD02C082E001C081E08093FA
:10163000680181E090916801913009F080E008959F
:101640000E94FF0A809300018091000166E08823D8
:1016500011F080E001C086E00E94430C0E94030B61
:1016600081110C94350B0C943B0B62E070E081E02F
:1016700091E00C94C81462E070E081E091E00C9479
:10168000D1140E94990F882361F082E791E00E94B3
:101690009F0F81E090E00E94B315892B11F40C9408
:1016A0009C0F089580917101883039F460E082E7E1
:1016B00091E00E94B20F109271010895CF93DF93D1
:1016C000D82FC92F0E94410B80E090E00E94B315F3
:1016D000892BE9F4ED2FFC2F80E090E0DC01A55987
:1016E000BE4F2C912193019685309105B9F70E9448
:1016F000C210882319F00E94231101C080E080935A
:101700006A0180E791E00E945E1281E001C080E002
:10171000DF91CF910895CF93DF9300D0CDB7DEB79F
:1017200089839A830E94520B8981E82F9A81F92F2D
:1017300080E090E02191DC01A559BE4F2C930196E9
:1017400085309105B9F780916A010E943A1180E7CE
:1017500091E00F900F90DF91CF910C945512AF92C2
:10176000BF92CF92DF92FF920F931F93CF93DF939D
:10177000D62E372FE82FF0E0711106C0E55FF94F44
:101780006491762F862F75C0C72FD0E0E55FF94FA3
:101790002491F22E022F10E046E0649FC001112434
:1017A000EFEFF0E0BF010E944F2CAB016BEA640346
:1017B000C001659F900D11248D0D911D8D0D911D02
:1017C000982F990F890FDF01AC1BBD0B0A9FB00149
:1017D0000B9F700D1A9F700D1124972F839FD001BE
:1017E0001124AB2FBB276F01CA1ADB0A0C9DD00155
:1017F0000D9DB00D1C9DB00D11245F01A81AB108FC
:10180000AC9E6001AD9ED00CBC9ED00C1124CD2DA1
:10181000DD27EC1BFD0B0E9FE0010F9FD00D1E9FDF
:10182000D00D1124ED2F4230510591F04CF44115AB
:101830005105E1F041305105B9F4E22F2B2F16C0CC
:101840004430510569F044F04630510579F00CC040
:10185000E22F272F9D2F0AC0272F9F2DEB2F06C089
:10186000E72F922F2D2F02C0E72F9B2F6E2F722F65
:10187000892FDF91CF911F910F91FF90DF90CF9033
:10188000BF90AF90089580937B01609312010895FB
:10189000CF93DF93762FE901682F842F0E94AF0B3F
:1018A000798368838A83DF91CF910895809125029F
:1018B000982F9695913021F0817082608093250257
:1018C000089588E090E00C94AD2CCF93DF9300D086
:1018D00000D0CDB7DEB7AB01BC0149835A836B831F
:1018E0007C830E94560C49815A816B817C8188E0FF
:1018F00090E00F900F900F900F90DF91CF910C948C
:10190000CB2CE5E2F2E083E0808311828FEF8283CB
:1019100083831482ADE7B1E012968C9112978360B5
:1019200012968C9360817181828193810C94650CF5
:101930008091130280FF08C083E795E09F938F9307
:101940000E9441050F900F908091130280FF0FC0FD
:101950008091250281701F928F9386E595E09F9379
:101960008F930E9441050F900F900F900F908091E0
:10197000130280FF0FC08091250286951F928F93DE
:101980008BE395E09F938F930E9441050F900F90FA
:101990000F900F908091130280FF0EC0809126025D
:1019A0001F928F9381E295E09F938F930E94410550
:1019B0000F900F900F900F908091130280FF0EC038
:1019C000809127021F928F9387E095E09F938F93DA
:1019D0000E9441050F900F900F900F90809113027D
:1019E00080FF0EC0809128021F928F938DEE94E0AD
:1019F0009F938F930E9441050F900F900F900F902F
:101A00008091130280FF0EC0809129021F928F9354
:101A100081ED94E09F938F930E9441050F900F906A
:101A20000F900F90089580912902833018F48F5FF2
:101A300080932902609125027091260280912702ED
:101A4000909128020C94650C80912902882319F04A
:101A50008150809329026091250270912602809125
:101A60002702909128020C94650C6091120170E09D
:101A70008091250280FF0AC080917B0123E0829F34
:101A8000C0011124865D9D4F0C94DB1180917A0179
:101A900090911101891780F7E82FF0E09F01220F44
:101AA000331FE20FF31FE65DFD4F11821082128299
:101AB0008F5FF0CF809125028E7F80932502609109
:101AC00025027091260280912702909128020E949F
:101AD000650C8091130280FF0FC0809125028170F8
:101AE0001F928F9383E593E09F938F930E9441050C
:101AF0000F900F900F900F9080917F0181608093E5
:101B00007F012FEF80E792E0215080409040E1F785
:101B100000C000000C94350D809125028E7F8093CB
:101B200025028091130280FF0CC01F921F9289E151
:101B300093E09F938F930E9441050F900F900F9019
:101B40000F9080917F01816080937F012FEF80E76C
:101B500092E0215080409040E1F700C000000C94DA
:101B6000350D9091250290FF16C090917A01209139
:101B70001101921770F4E92FF0E0DF01AA0FBB1FEB
:101B8000EA0FFB1FE65DFD4F8183608342839F5F09
:101B9000F0CF0C94350D0895EF92FF920F931F93A1
:101BA000CF93DF9300D01F92CDB7DEB7909125027F
:101BB00090FF65C0E22EF42E062F182FE92FE69530
:101BC000F0E0E05DFE4F808180937D019E7F92304A
:101BD00059F49E012F5F3F4F812F0E94480C4B818B
:101BE00069818A810E94B10D80912602811308C00B
:101BF00080912702801304C0809128028F1529F05C
:101C000080917F01826080937F0110932602009370
:101C10002702F0922802EE20E9F0609125027091EF
:101C2000260280912702909128020E94650C8091E3
:101C3000130280FF24C0809128021F928F9380910D
:101C400027021F928F93809126021F928F9384EF19
:101C500092E00CC08091130280FF11C01F92FF928E
:101C60001F920F931F921F938DEC92E09F938F937F
:101C70000E9441050FB6F894DEBF0FBECDBF0F9096
:101C80000F900F90DF91CF911F910F91FF90EF90E8
:101C90000895E5E2F2E09181282F4381628188E096
:101CA000890F0C94CC0D81E00C94490EE5E2F2E032
:101CB0009181282F4381628188EF890F0C94CC0D8C
:101CC00081E00C94560EE5E2F2E0628121E1620FC0
:101CD00008F46FEF282F438181810C94CC0D81E0B3
:101CE0000C94630EE5E2F2E0628121E1621B08F4EC
:101CF00060E0282F438181810C94CC0D81E00C940D
:101D0000720EE5E2F2E0438121E1420F08F44FEF69
:101D1000282F628181810C94CC0D81E00C94810E7E
:101D2000E5E2F2E0438121E1421B08F440E0282F84
:101D3000628181810C94CC0D81E00C94900E20E0A6
:101D40000C94CC0D8091250280FF3AC08170826096
:101D50008093250280917F01816080937F016623BB
:101D6000B1F0609125027091260280912702909136
:101D700028020E94650C8091130280FF19C0809197
:101D8000250286951F928F9387E194E009C0809188
:101D9000130280FF0DC01F9281E08F9389EF93E0C3
:101DA0009F938F930E9441050F900F900F900F907B
:101DB0004091280260912702809126020C949F0E88
:101DC0000895682F81E00C94A20E81E00C94E10E3E
:101DD000682F9091250296958FEF890F09F481E085
:101DE0000C94A20E81E00C94E80E61E00C94A20E1B
:101DF000809125028160809325028091130280FFEB
:101E00000DC01F9281E08F938BE893E09F938F9397
:101E10000E9441050F900F900F900F908091250226
:101E200086950C94F50E8091130280FF10C080916E
:101E30002502809581701F928F9382EC93E09F938F
:101E40008F930E9441050F900F900F900F908091FB
:101E5000250280FD0C945A0D0C94F80E60E00C9451
:101E6000A20E80917C01811163C08091130280FFDA
:101E700008C08AEB94E09F938F930E9441050F90D6
:101E80000F908091130280FF08C084EA94E09F9332
:101E90008F930E9441050F900F900E94792281112B
:101EA00010C08091130280FF08C08CE794E09F93DC
:101EB0008F930E9441050F900F900E9422230E9451
:101EC000810C0E94610C609325027093260280931E
:101ED00027029093280280917F01836080937F0185
:101EE0006E7FC1F48091130280FF08C083E394E009
:101EF0009F938F930E9441050F900F900E94810C39
:101F00000E94610C60932502709326028093270241
:101F1000909328020E94560C0E94980C80912502F2
:101F200080FF03C086950E942E0F81E080937C0184
:101F3000089580917F01089510927F01089525E012
:101F4000E5E2F2E0DC0101900D922A95E1F72091A3
:101F50007D0130917E0140917F01FC012583368314
:101F6000478308951F93CF93DF93EC01162F8F8142
:101F700080FF0FC0888180FF0AC0809125028160A8
:101F800080932502888186950E94A20E02C00E943D
:101F90008C0D8F8181FF09C0212F4B816A8189813E
:101FA000DF91CF911F910C94CC0DDF91CF911F91B8
:101FB00008950E947922811102C00E9422230E946A
:101FC000AA2280934E02282F26952695269530E04A
:101FD0002630310524F08770886280934E0280910C
:101FE0004E0280FF04C086958695869501C080E0EC
:101FF0000C943A1120914E02822F869586958695F3
:10200000482F50E04530510554F48F5F982F990FB9
:10201000990F990F822F8770892B80934E028091A0
:102020004E02816080934E020E94AE228091130284
:1020300080FF11C080914E028695869586951F92ED
:102040008F9383EF95E09F938F930E9441050F90AC
:102050000F900F900F9080914E02869586958695F1
:102060000C943A1180914E02982F969596959695DC
:10207000A1F0915E990F990F990F8770892B80932A
:102080004E02887F91E009F490E080914E0290FB2F
:1020900080F980934E020E94AE228091130280FF4D
:1020A00011C080914E028695869586951F928F93DA
:1020B0008BED95E09F938F930E9441050F900F90B9
:1020C0000F900F9080914E028695869586950C9480
:1020D0003A1180914E0280FD1FC0816080934E02B4
:1020E000813019F489E080934E0280914E020E9463
:1020F000AE228091130280FF08C083EB95E09F938E
:102100008F930E9441050F900F9080914E0286950B
:10211000869586950C943A11089580914E0280FF21
:1021200014C08E7F80934E020E94AE2280911302D3
:1021300080FF08C080EA95E09F938F930E9441053D
:102140000F900F9080E00C943A110895CF93C091B6
:102150004E02C1708091130280FF0CC01F92CF937A
:1021600085EC95E09F938F930E9441050F900F900F
:102170000F900F90CC2319F0CF910C948D10CF912C
:102180000C94691080914E028170089590914E02D6
:10219000892F8695869586958F5F8F71977086308B
:1021A00038F4880F880F880F892B80934E0202C065
:1021B00090934E0280914E02887F91E009F490E066
:1021C00080914E0290FB80F980934E020E94AE22D5
:1021D0008091130280FF11C080914E0286958695F2
:1021E00086951F928F938CE895E09F938F930E9422
:1021F00041050F900F900F900F9080914E028695A1
:10220000869586950C943A11863008F085E0880F03
:10221000880F880F90914E029770892B80934E0201
:10222000887F91E009F490E080914E0290FB80F964
:1022300080934E020E94AE2280914E028695869532
:1022400086950C943A1180914E02869586958695D6
:102250000895E82FE295EF70F0E032A1282F2F705B
:1022600081E090E001C0880F2A95EAF780958323EA
:1022700082A30895CF92DF92EF92FF92863030F4DE
:10228000811105C0909180009F7D04C085E09091F0
:102290008000906290938000282F30E0AFEFBFEF76
:1022A0000E948B2C25E030E040E050E00E94632C3F
:1022B0002C3784E138074105510530F4C90169E044
:1022C00070E00E944F2C29C0DA01C9018A50974D55
:1022D000AF4FBF4F6627782F892F9A2F25EF38E20F
:1022E00041E050E00E94632C69017A01CA01B90102
:1022F0000E94332C9B01AC01C701B6010E94332C14
:10230000BB27A92F982F872F009721E0A207B1059F
:1023100011F0BC0102C06FEF7FEF70938B006093F0
:102320008A00FF90EF90DF90CF9008950895269A4D
:1023300086E30E94291182E28093800089E18093E4
:1023400081008FEF9FEF90938700809386000C941D
:10235000D90F21B3342F3095232331B3432B3FB70B
:10236000F894FC01680F791FE617F70789F081914F
:1023700098E041BB000000C087FF21BB880F000030
:1023800000C000C000C021BB00C09A9591F7ECCFFF
:102390003FBF089520B3242B20BB9B01220F331F86
:1023A000620F731F0E94A91187EC90E00197F1F76B
:1023B00000C00000089540E80C94CA1108950C94E0
:1023C000DE1125982D9A27982F9A83B185FB8827AF
:1023D00080F923B130E0220F232F221F330B232B50
:1023E00011F490E001C092E0892B809385019091D7
:1023F000000181E0982790938101891B80938001DF
:102400000895CF93E0918501EE0FEE0FE0938501E3
:1024100023B125FB882780F990E023B130E0220F1B
:10242000232F221F330B2115310511F022E030E05C
:10243000822B932BE82BE0938501C0918101EF70F3
:10244000F0E0EE5CFE4F908180918401890F8093D3
:10245000840184306CF0EC2F0C2E000CFF0BEE5737
:10246000FE4F80818F5F808361E08C2F0E94DF119F
:10247000809184018D3F6CF4EC2F0C2E000CFF0B2F
:10248000EE57FE4F80818150808360E08C2F0E9448
:10249000DF1180918401837887FF03C081508C6FA6
:1024A0008F5F80938401CF910895E0918101F0E0E6
:1024B000EE57FE4F2081FC0120830895FF920F9379
:1024C0001F93CF93DF93D09180010D2F10E00E5713
:1024D0001E4FFC01C081F8018081C81BFC2E1F1417
:1024E00054F4FA94F80180818F5F808361E08D2F2E
:1024F0000E94DF11F4CF8C2FC7FD80E0C81BCC23D6
:1025000051F0CF5FF80180818150808360E08D2F92
:102510000E94DF11F4CFDF91CF911F910F91FF90B7
:1025200008950F931F93CF93DF93C62FD42F022FBD
:10253000FC0182818823C9F0609388010E94F12305
:10254000909387018093860180E28C0F883008F099
:1025500050C0C77081E001C0880FCA95EAF7DF91CB
:10256000CF911F910F910C94671910918801161348
:1025700030C080918601909187010E94FD23883CA4
:10258000910538F5C0E2CD0F1D17B9F080E2810F3B
:10259000883040F4177081E001C0880F1A95EAF77F
:1025A0000E946E19C83048F481E09D2F977001C0D9
:1025B000880F9A95EAF70E946719802F0E94541994
:1025C000C830B8F4D77081E001C0880FDA95EAF717
:1025D0000AC080E28C0F883060F4C77081E001C0CF
:1025E000880FCA95EAF7DF91CF911F910F910C9454
:1025F0006E19DF91CF911F910F9108959C01CB012E
:10260000233F4CE53407F9F078F4283DFCE53F071B
:10261000B9F0293D4CE5340711F1273D3C4531F532
:1026200026E241EE61EE1EC0253FFCE53F0799F032
:1026300070F0263F3C45D1F427E245EE66EE12C02D
:1026400027E245EE0EC026E241EE60EE0BC027E227
:1026500045EE64EE07C026E241EE62EE03C028E2DA
:1026600041E065EE0E94911280E00895FC018281B4
:10267000882319F010928801089581E00895CF937E
:10268000DF93EC01FB018281882309F41FC1C23072
:10269000FCE5DF0708F41BC1C6319CE5D90738F01B
:1026A0009E012A5F3C452930310508F010C10E9487
:1026B0008C229093540280935302C031ECE5DE07E4
:1026C00009F4C3C008F041C0C8308CE5D80709F44C
:1026D0009AC0F0F4C430ECE5DE0709F487C068F472
:1026E000C2308CE5D80709F477C0C330DC4509F067
:1026F000E3C080915302826076C0C630ECE5DE070D
:1027000009F46EC008F07BC08091530288606BC0F2
:10271000CC308CE5D80709F485C068F4CA30ECE504
:10272000DE0709F474C008F079C00E94F71B80919D
:102730005302806858C0CE308CE5D80709F476C0C3
:1027400008F07FC0809153028BC0CB3FECE5DE07E1
:1027500009F44FC018F5C3318CE5D80709F47DC0E2
:1027600078F4C131ECE5DE0709F473C0C231DC4511
:1027700009F0A2C00E94F71B809153028F7733C0EB
:10278000C5318CE5D80709F472C008F486C0CA3F89
:10279000DC4509F091C0809154023EC0CF3FFCE57A
:1027A000DF0709F45FC058F4CD3F9CE5D90709F471
:1027B00044C008F43FC08091540282602DC0C130F3
:1027C000FDE5DF0709F475C008F45DC0C230DD45E2
:1027D00009F072C080E06EC080915302816003C036
:1027E0008091530280618093530266C080915302AE
:1027F00011C0809154028260809354025DC0809128
:1028000053028062F0CF809153028064ECCF8091BC
:10281000530288608460E7CF8160EECF80915302DD
:102820008E7FE1CF809153028D7FDDCF8091530267
:10283000877FD9CF8091540218C0809154028D7F38
:10284000DBCF809153028F7ECECF809153028F7D5C
:10285000CACF809153028F7BC6CF80915302877F6E
:102860008B7FC1CF809154028D7F8E7FC5CF8091A9
:10287000530282FB222720F991E0922790FB82F9F4
:1028800090FB83F9B0CF80915402982F909591706E
:102890008E7F892B90FB81F9AFCF0E94F71B80912F
:1028A000530287FB222720F991E0922790FB87F9BA
:1028B0009ACF81E00E942423809153029091540288
:1028C0000E949D220E94F71B80E001C081E0DF9101
:1028D000CF9108958EE1489B02C08150E1F7489B5B
:1028E000FECF0895589880E28A95F1F7589A089596
:1028F000FC013AE03A95F1F720E090E080E031E029
:10290000961779F040E14A95F1F7880F489B02C08D
:102910008160232700C0000040E14A95F1F79F5FE6
:10292000EFCF90E19A95F1F799B100C0000030E146
:102930003A95F1F7917092272081920F9083089534
:10294000EF92FF920F931F93CF93DF931F92CDB718
:10295000DEB7F62E1982E82E8C01802F8E198F1586
:1029600058F40E946A1468E0CE0101960E9478141F
:10297000F80181938F01F1CF81E09981911180E07D
:102980000F90DF91CF911F910F91FF90EF900895DD
:1029900090938B0180938A0160938901509A589A91
:1029A000089590938B0180938A01609389015098D8
:1029B000589AE89AE9E6F0E080818C7F8083089558
:1029C000615091E001C0990F6A95EAF720E031E08B
:1029D000992361F0492F482319F0589A232701C001
:1029E000589840E24A95F1F79695F2CF222311F0DC
:1029F000589A01C0589880E28A95F1F7589808953E
:102A0000EF92FF920F931F93CF93DF931F92CDB757
:102A1000DEB7162F082F7C018E2D801B811758F4EE
:102A2000F70181917F0189830E94721468E0898196
:102A30000E94E014F1CF0F90DF91CF911F910F9181
:102A4000FF90EF9008951F920F920FB60F921124EE
:102A50000F931F932F933F934F935F936F937F93A6
:102A60008F939F93AF93BF93EF93FF93CF93DF9396
:102A70001F92CDB7DEB719820E946A1467E0CE01BB
:102A800001960E947814382F369536953695932FF7
:102A900096959570232F2570920F292F2370969568
:102AA00096958770920F891348C08981811145C01E
:102AB00080918901831708F440C080E18A95F1F77D
:102AC000589A509AA2E0AA95F1F700C000918A01A5
:102AD00010918B01B8E03B9F000D111D11245898F7
:102AE000F8016581662321F0868197810E94001597
:102AF0000E947214F0E1FA95F1F758985098589A9C
:102B000080E18A95F1F7D80112966C9112976623AD
:102B100069F013968D919C9114970E94A014D8018E
:102B2000ED91FC91811105C082E004C0D801ED91C6
:102B3000FC9188E080830E946A140F90DF91CF910E
:102B4000FF91EF91BF91AF919F918F917F916F9185
:102B50005F914F913F912F911F910F910F900FBE59
:102B60000F901F9018950F931F93CF93DF93209191
:102B7000890130E0281739070CF471C09C0193E0FB
:102B8000220F331F9A95E1F7C0918A01D0918B01F2
:102B9000C20FD31FF894509A589845E04A95F1F720
:102BA0000000982F969595708570890F982F9370D7
:102BB00086958695890F8901082B0E94721484E0FE
:102BC0008A95F1F700C067E0802F0E94E01440E191
:102BD0004A95F1F75098589A489902C000C0FCCF26
:102BE00087E090E0489B0EC0019751F4509A589AA4
:102BF000E881F98181E08083789481E090E031C0C0
:102C000000C0F0CF6D81662381F08E819F810E948C
:102C1000A01481110AC0509A589AE881F98182E083
:102C20008083789482E090E01CC00E946A1480E265
:102C30008A95F1F75898509A40E14A95F1F76A81E0
:102C4000662321F08B819C810E9400150E947214E2
:102C5000E881F9811082789480E090E002C084E0FD
:102C600090E0DF91CF911F910F9108959093910182
:102C7000809390010895E0919001F0919101309737
:102C800021F00190F081E02D099480E00895EF9209
:102C9000FF920F931F93CF93DF93E0919001F091F8
:102CA00091013097B1F18C010280F381E02D0995FB
:102CB0008091130282FF2DC080FF04C083E197E062
:102CC0000E94A804E80118E08DE0E82E87E0F82EC5
:102CD0008091130280FF0BC088811F928F93FF9217
:102CE000EF920E9441050F900F900F900F9011509E
:102CF00021961111EDCF8091130280FF0AC08BE065
:102D000097E0DF91CF911F910F91FF90EF900C947E
:102D1000A804DF91CF911F910F91FF90EF9008953C
:102D200020918E0130918F018217930771F090935B
:102D30008F0180938E01E0919001F0919101309785
:102D400021F00680F781E02D0994089520918C01EF
:102D500030918D018217930771F090938D018093CC
:102D60008C01E0919001F0919101309721F0008465
:102D7000F185E02D0994089585B7806885BF85B7F2
:102D8000806885BF0895089508950C94C416089529
:102D90000C94C7160E94BC160E94C3160C94C5164C
:102DA0000E94E8230E94AC090E9471240E94D90F5E
:102DB0000E94310F0C94C816CF93C82F8091130234
:102DC00082FF1EC080FF04C08CE297E00E94A8042E
:102DD0008091130280FF0CC01F92CF9387E297E08F
:102DE0009F938F930E9441050F900F900F900F902B
:102DF0008091130280FF04C085E297E00E94A8043E
:102E00008C2FCF910C94A105CF92DF92EF92FF927D
:102E10000F931F93CF93DF93CDB7DEB72B970FB6EA
:102E2000F894DEBF0FBECDBF0E948A0A0E94030B3A
:102E3000811111C08FEF89838A831B820E94F12345
:102E40008160782F9D838C8349815A816B818D812C
:102E50000E94AA1756C083E9C82E81E0D82E00E050
:102E600010E0E02E802F0E946009F60141916F0171
:102E7000F42EF82631F40F5F1F4F0A30110589F741
:102E8000D9CF9091130291FF04C08B870E946609ED
:102E90008B8520E030E04F2D50E0922FBA01022EBA
:102EA00002C0759567950A94E2F760FF24C02E83EF
:102EB000EF8221E030E0690102C0CC0CDD1C9A9564
:102EC000E2F790E08C219D21892B09F420E02887EE
:102ED0000E94F1238160782F9A8789874E815F81D4
:102EE00068858A850E94AA17F801ED56FE4F8081F9
:102EF000C826C08206C02F5F3F4F2630310569F6D5
:102F0000BACF109192010E943B161817A1F00E94AF
:102F10003B16809392012B960FB6F894DEBF0FBE3E
:102F2000CDBFDF91CF911F910F91FF90EF90DF9078
:102F3000CF900C94DC162B960FB6F894DEBF0FBE24
:102F4000CDBFDF91CF911F910F91FF90EF90DF9058
:102F5000CF900895CF93DF93CDB7DEB72B970FB601
:102F6000F894DEBF0FBECDBF4F83588769877A873D
:102F70008B87DE01119686E0FD0111928A95E9F7B3
:102F800085E0FE01379601900D928A95E1F749811F
:102F90005A816B817C818D819E810E94A11E2B961E
:102FA0000FB6F894DEBF0FBECDBFDF91CF9108956D
:102FB000FC01808191810E946F210895882309F48A
:102FC00013C1682F8238C1F40E943B1681FD0CC1E9
:102FD00069E380911301909114010E945B230E9488
:102FE000FA212FEF81EE94E0215080409040E1F7EC
:102FF00000C0000069E319C08338F9F40E943B1651
:1030000080FDF2C063E580911301909114010E944C
:103010005B230E94FA212FEF81EE94E02150804043
:103020009040E1F700C0000063E5809113019091AA
:1030300014010E945D230C94FA218438C1F40E948B
:103040003B1682FDD1C067E4809113019091140179
:103050000E945B230E94FA212FEF81EE94E0215021
:1030600080409040E1F700C0000067E4DECF8CEFC5
:10307000860F813A38F480911301909114010E94D7
:103080005B23D9CF80E2860F883048F4677081E0F7
:1030900001C0880F6A95EAF70E94B121CCCF8BE579
:1030A000860F833070F4653A29F0663A31F083E890
:1030B00090E005C081E890E002C082E890E00C94C6
:1030C000901688E5860F873108F08EC0683A09F4BB
:1030D00045C0693A09F445C06A3A09F445C06B3AFB
:1030E00009F445C06C3A09F445C06B3B09F445C08E
:1030F0006C3B09F445C06D3A09F445C0603B09F4E6
:1031000045C06E3A09F445C06F3A09F445C0613BC9
:1031100009F445C0623B09F445C0633B09F445C06E
:10312000643B09F445C0653B09F445C0663B09F4BE
:1031300045C0673B09F445C0683B09F445C0693B9D
:1031400009F445C06D3B09F445C06E3B09F445C028
:103150006A3B09F445C080E090E044C082EE90E014
:1031600041C089EE90E03EC08AEE90E03BC085EB26
:1031700090E038C086EB90E035C083EB90E032C041
:1031800084EB90E02FC087EB90E02CC08CEC90E0BB
:1031900029C08DEC90E026C083E891E023C08AE846
:1031A00091E020C082E991E01DC084E991E01AC05D
:1031B00081E292E017C083E292E014C084E292E0E0
:1031C00011C085E292E00EC086E292E00BC087E279
:1031D00092E008C08FE690E005C080E790E002C072
:1031E0008AE292E00C94A6160895882309F45BC045
:1031F000682F823879F40E943B1681FF54C069E33E
:1032000080911301909114010E945B230E94FA2186
:1032100069E310C08338B1F40E943B1680FF43C0BD
:1032200063E580911301909114010E945B230E9439
:10323000FA2163E580911301909114010E945D23AE
:103240000C94FA21843879F40E943B1682FF2BC03B
:1032500067E480911301909114010E945B230E9406
:10326000FA2167E4E7CF8CEF860F813A18F380E20A
:10327000860F883048F4677081E001C0880F6A9536
:10328000EAF70E94B721DCCF8BE5860F833020F46C
:1032900080E090E00C949016685A673120F480E04A
:1032A00090E00C94A6160895CF93C82F0E94DE17C5
:1032B000C93349F42FEF87EE93E0215080409040CE
:1032C000E1F700C000008C2FCF910C94F5188823F3
:1032D00021F00E94B1210C94FA210895882321F055
:1032E0000E94B7210C94FA210895BF92CF92DF92E9
:1032F000EF92FF920F931F93CF93DF937C01062FE2
:10330000C72FFC01158112951F70D281D1110E9427
:10331000CE210E94A721882379F0DD2369F080E285
:10332000800F883048F082E00E9445220E94A72149
:1033300091E0B82EB92601C0B12CCC2EC2948FE0FA
:10334000C822D12CF601E659FF4F0C94852C8C2F06
:10335000807FCF70882311F0C295C07FDD2399F064
:10336000CC2309F48DC180E2800F883010F0011168
:1033700004C08C2F0E94B12103C08C2F0E94C12158
:103380000E94FA217DC1802F0E94F518CC2309F4F8
:10339000C0C180E2800F883010F0011104C08C2F72
:1033A0000E94B72103C08C2F0E94C7210E94FA21DE
:1033B000B0C18C2F807FCF70803211F0C295C07F5A
:1033C000002319F00130C9F022C0DD2371F0112370
:1033D00041F0113031F40E94E1218C2B0E94E72151
:1033E00098C10E94E1218C2B1DC0112319F01130CE
:1033F00009F48FC10E94F02125C0DD2321F0163091
:1034000008F087C10EC0153008F083C11BC0DD2352
:1034100061F0112331F0F701858180FF31C18F7098
:1034200085838C2F0E94671974C1112359F00933C9
:1034300009F037C1FFEF27EE83E0F15020408040D4
:10344000E1F72DC18C2F0E946E1963C18C2F8695D8
:103450008695837090E0009719F0019761F059C14B
:10346000DD2321F0802F9C2F937002C080E090E03C
:103470000E94901659C1DD2321F0802F9C2F93705C
:1034800002C080E090E00E94A6164EC18C2F83708F
:1034900009F049C0D11144C1402F4295469547706B
:1034A000440F440F602F6F70862F90E0A0E0B0E0D3
:1034B000042E04C0880F991FAA1FBB1F0A94D2F7BD
:1034C00004FF10C00FE010E020E030E004C0000F67
:1034D000111F221F331F4A95D2F700951095209592
:1034E000309503C000E010E09801C695C695C37002
:1034F000D0E0BC01CD01602B712B822B932BC2300D
:10350000D10559F0C330D10559F0219719F00E9427
:10351000E61F06C10E94D41F03C10E94F81F00C10C
:103520000E94D21FFDC0DD2319F08C2F817001C0D5
:103530008695882309F4F4C0402F4295469547703C
:10354000440F440F602F6F70862F90E0A0E0B0E032
:10355000042E04C0880F991FAA1FBB1F0A94D2F71C
:1035600004FF10C00FE010E020E030E004C0000FC6
:10357000111F221F331F4A95D2F7009510952095F1
:10358000309503C000E010E09801C695C695C37061
:10359000D0E0BC01CD01602B712B822B932BC2306C
:1035A000D10559F0C330D10559F0219719F00E9487
:1035B000AC20B6C00E949A20B3C00E94BE20B0C00A
:1035C0000E940D20ADC0CF70DD2339F08C2F0E94FA
:1035D0003320802F0E946719A3C0802F0E946E198C
:1035E0008C2F0E9454209CC0023F01F128F4003F20
:1035F00041F0013FA1F040C0033FF9F0043F39F131
:103600003BC0DD2341F0153008F083C08C2F8F7153
:103610000E9479207EC0163008F07BC0F7CFDD23F2
:1036200039F08C2F8F710E94332073C0DD23C9F3D2
:103630008C2F8F710E9454206CC0DD2329F08C2FB9
:103640008F710E941E2065C00E94192062C0DD2378
:1036500049F0CF718C2F0E94332063E08C2F0E94A1
:10366000302257C081E00E944522123008F451C038
:1036700082E00E9445224DC0DD2331F0112389F202
:10368000802F0E94DE1745C0112391F2093349F4BF
:103690009FEFE7EEF3E09150E040F040E1F700C02B
:1036A0000000802F0E94F51834C04C2F4F70602FFF
:1036B000C7010E9483060E94451F36C0D11134C045
:1036C000CF70D0E0C230D10599F03CF4209769F07A
:1036D0002197F9F40E94321027C0C430D10571F04F
:1036E00054F02597B1F480E00AC00E94FA0F1CC084
:1036F0000E94A61019C00E94C61016C085E00E9444
:10370000041112C04C2F4F70602FC7010E94860613
:103710000BC028E0C21AD10884E0C816D10420F4F6
:103720000E943B160E94A105BB20D1F00E94A3215C
:1037300080FD16C0F70112820E949D210E94332055
:10374000C7010E94BA1B0E949D21DF91CF911F915A
:103750000F91FF90EF90DF90CF90BF900C9454208A
:10376000DF91CF911F910F91FF90EF90DF90CF905D
:10377000BF9008950F931F93CF93DF93EC0188813F
:1037800099812B813C81232BB9F09F3F11F48F3F0E
:1037900099F0CE010E94BA05882371F06881798181
:1037A0008A810E947A218C010E94D0200E94D11F20
:1037B000B801CE010E947519DF91CF911F910F9131
:1037C00008950E94CE210E94DE210E94FA2180E00D
:1037D00090E00E94901680E090E00C94A6168091F4
:1037E0001301909114010E945F230C94E11B0E942D
:1037F000BE210C94EF1BE92FE295EF70F0E03297B9
:10380000EE30F105B0F4E658FF4F0C94852C803F64
:1038100091F018F4883E68F40EC0843F51F40BC058
:10382000883E48F0813F29F406C093FB882780F941
:10383000089580E0089581E008950E946F210E941C
:10384000FB1B0895CF93DF9300D000D01F92CDB71C
:10385000DEB70F900F900F900F900F90DF91CF91E8
:103860000895CF93DF9300D000D000D0CDB7DEB75E
:1038700026960FB6F894DEBF0FBECDBFDF91CF9175
:1038800008951F93CF93DF93C0919E0116E080911E
:103890009F01C81799F0D0E01C9FF0011D9FF00D0B
:1038A0001124E056FE4F40815181628173818481F1
:1038B00095810E94311C2196C770E9CFDF91CF918D
:1038C0001F9108954091D0015091D1016091D20192
:1038D0007091D3018091D4019091D5010C94311C49
:1038E0008091D50182958F7009F054C08091D201EA
:1038F000882309F44FC080919E01A0919F0160919F
:10390000D0017091D1014091D3015091D401B6E022
:103910008A1709F43FC090E041155105C1F17F3F7E
:1039200011F46F3FA1F1B89FF001B99FF00D112480
:10393000E056FE4F218172132AC02081621327C0F6
:103940002281211124C0238134812417350710F4EA
:1039500021503109241B350B283C3105C0F420913E
:10396000D5012F7020612093D50126E0289FF0011A
:10397000299FF00D1124EB55FE4F80818F708061DF
:10398000808380ED91E00E94BA1B0C94411C01964B
:103990008770BECF0895CF92DF92EF92FF920F9380
:1039A0001F93CF93DF93CDB7DEB762970FB6F8942E
:1039B000DEBF0FBECDBF8C0185E0F801DE011D9694
:1039C00001900D928A95E1F7D8014C9111965C9186
:1039D000119712966C9112971396CD90DC901497D4
:1039E0003091D0017091D1018091D3019091D40197
:1039F000009709F46BC17F3F19F43F3F09F466C19A
:103A0000E090D201EE2009F4C0C02091D501C81683
:103A1000D90628F0F601E81BF90BCF0104C0809508
:103A200090958C0D9D1DFF24F394883C910578F0B2
:103A3000F12C207F09F0C6C07C2DD98AC88A8989DB
:103A40000E94221C80ED91E00E94BA1BB1C0822F1F
:103A5000807F09F046C0751314C0341312C0611181
:103A600010C02F7020612093D5010E94621C80ED50
:103A700091E00E94BA1B8091D501D80115968C93D4
:103A80002EC0CD2819F15F3F11F44F3FF9F0F62E0B
:103A900061111CC080919E0120919F0136E0821728
:103AA00009F45AC090E0389FF001399FF00D1124BD
:103AB000E056FE4F7181571306C07081471303C053
:103AC0007281711103C001968770E9CFF62E6623CB
:103AD00009F427C18091D50181608093D501F12C33
:103AE00020C1751308C0341306C0611104C0809151
:103AF000D501D801C3C04D875E878D859E856A8BB1
:103B00000E941D1C6A898823E1F16623D1F120916E
:103B1000D501822F82958F7090E0029774F080918A
:103B2000D0019091D10198878F831986DB86CA8650
:103B30002C87CE0107960E94BA1B86E0F801A0ED03
:103B4000B1E001900D928A95E1F70E94701C0E94ED
:103B5000621CFF24F394E5C04D875E878D859E85AA
:103B60000E946F21292F22952F7030E022303105DD
:103B70000CF0CBC09F7009F0C5C0805E883008F49F
:103B8000D0C0C8010E94BA1BE4CFC816D90608F4F9
:103B900053C0F601E81BF90BCF01883C910508F4EE
:103BA00050C0F12C7C2DD98AC88A89890E94221C98
:103BB000E0EDF1E086E0DF011D928A95E9F70E94D1
:103BC000621CAFC0751314C0341312C0611110C051
:103BD0008091D501F8018583C8010E94BA1B86E057
:103BE000E0EDF1E0DF011D928A95E9F7FE2C99C026
:103BF0004D875E878D859E856A8B0E941D1C6A8914
:103C0000882309F4BECF662309F4BBCF2091D501E8
:103C1000822F82958F7090E002970CF48ECF809166
:103C2000D0019091D1019A8389831B82DD82CC825D
:103C30002E83CE0101967FCF809590958C0D9D1D92
:103C4000ACCFF62E662309F49CCF75132EC0341327
:103C50002CC02091D50120FD1FC0822F82958F702E
:103C6000D9F0D80115962C9315978F3049F08F5FB6
:103C7000982F9295907F822F8F70892B15968C9319
:103C8000C8010E94BA1B86E0F801A0EDB1E00190E6
:103C90000D928A95E1F793CF86E0F801A0EDB1E0AF
:103CA00001900D928A95E1F73CC04D875E878D8526
:103CB0009E850E941D1C811140CF8091D50181609D
:103CC0008093D501C8010E94BA1B2BC0662309F45A
:103CD00058CF4D875E878D859E850E941D1CF82ECE
:103CE000882309F44ECF86E0F801A0EDB1E0019001
:103CF0000D928A95E1F780ED91E00E94D8170E941D
:103D0000701C5DCF811139CF0CC0243031050CF00F
:103D100038CF9F7009F431CFF8019581907F09F079
:103D20002CCF8F2D62960FB6F894DEBF0FBECDBF9D
:103D3000DF91CF911F910F91FF90EF90DF90CF9087
:103D400008951F93CF93DF93CDB7DEB72C970FB6AF
:103D5000F894DEBF0FBECDBF4F83588769877A873F
:103D60008B879C87CE0107960E94CB1C882369F025
:103D70008F8198852A853B85232BF1F19F3F09F0A0
:103D800063C08F3F09F060C037C086E0FE01379600
:103D9000DE01119601900D928A95E1F76F81788589
:103DA000EA85FB85309741F17F3F11F46F3F21F1A8
:103DB00020919F0130E0C9010196877099274091B9
:103DC0009E0150E08417950709F447C069837A8300
:103DD000FD83EC8396E0929FD001939FB00D112458
:103DE000A056BE4FFE01319601900D929A95E1F7D3
:103DF00080939F010E94411C16E080919E0190914A
:103E00009F018917C1F1189FC001112480569E4F50
:103E10000E94CB1C882379F1E0919E011E9FF00146
:103E20001124E056FE4F408151816281738184816B
:103E300095810E94311C80919E0190E001968770CF
:103E4000992780939E01D9CF4F81588569857A85BE
:103E50008B859C850E94311CCFCF0E94F71B10924E
:103E60009F0110929E01E0EDF1E086E0DF011D92DE
:103E70008A95E9F7C1CF2C960FB6F894DEBF0FBE36
:103E8000CDBFDF91CF911F910895EF92FF920F93D5
:103E90001F93CF93DF938C01892B09F46CC0F12C15
:103EA000EE24E394E8012196F8018491843740F4EC
:103EB000843008F051C0813081F0823019F15BC04C
:103EC000853709F444C0A8F19CE7980F903708F0B3
:103ED00052C08F770E94F51841C00E5F1F4FFE0140
:103EE000C49180E28C0F883048F4C7708E2D01C0D9
:103EF000880FCA95EAF70E94D12114C08C2F0E9426
:103F0000DE172DC00E5F1F4FFE01C49180E28C0FA3
:103F1000883058F4C7708E2D01C0880FCA95EAF713
:103F20000E94D7210E94FA211AC08C2F0E94F518F6
:103F300016C00E5F1F4FFE01C491CC2381F08FE9A4
:103F40009FE00197F1F700C00000C150F6CF0E5F6F
:103F50001F4FFE01F49003C00E94DE178E018F2DCB
:103F6000882309F49FCFEFE9FFE03197F1F700C014
:103F700000008150F5CFDF91CF911F910F91FF90FD
:103F8000EF90089508950C94C21F0E94C31F609380
:103F900002027093030280930402909305020C9432
:103FA000E11B08950C94C51F0F931F93009102020B
:103FB000109103022091040230910502602B712BB5
:103FC000822B932B1F910F910C94C51F0F931F935E
:103FD0000091020210910302209104023091050227
:103FE00060237123822393231F910F910C94C51F8B
:103FF0000F931F930091020210910302209104027B
:104000003091050260277127822793271F910F9116
:104010000C94C51F08950C940A200E940B206093F5
:10402000FE017093FF0180930002909301020C94B3
:10403000E11B60E070E0CB010C940D200F931F9307
:1040400041E050E060E070E08A019B0104C0000F95
:10405000111F221F331F8A95D2F7C901B8011F9182
:104060000F910C940D200F931F9341E050E060E0FE
:1040700070E004C0440F551F661F771F8A95D2F762
:104080008091FE019091FF01A0910002B091010288
:104090008A019B01082B192B2A2B3B2BC901B80144
:1040A0001F910F910C940D200F931F9341E050E04E
:1040B00060E070E004C0440F551F661F771F8A95AB
:1040C000D2F740955095609570958091FE01909142
:1040D000FF01A0910002B09101028A019B01082317
:1040E00019232A233B23C901B8011F910F910C9476
:1040F0000D200F931F9341E050E060E070E004C09A
:10410000440F551F661F771F8A95D2F78091FE01D5
:104110009091FF01A0910002B09101028A019B01E0
:10412000082719272A273B27C901B8011F910F919A
:104130000C940D200F931F930091FE011091FF012D
:104140002091000230910102602B712B822B932B66
:104150001F910F910C940D200F931F930091FE015E
:104160001091FF0120910002309101026023712320
:10417000822393231F910F910C940D200F931F9373
:104180000091FE011091FF01209100023091010287
:1041900060277127822793271F910F910C940D2080
:1041A0000895292F220F920F990F890FA82FA695F6
:1041B000A695A695877051E001C0550F8A95EAF73C
:1041C00085E0A89FD001112420E030E070E0F901E3
:1041D000EA0FFB1FEA52FE4F4081CB01022E02C0C4
:1041E000969587950A94E2F781709927819584279F
:1041F0008523842780832F5F3F4F2530310539F792
:104200000895292F220F920F990F890F682F669515
:1042100066956695982F977085E0689FB001112488
:1042200040E050E080E0FA01E60FF71FEA52FE4F4F
:10423000208130E0092E02C0369527950A94E2F7D6
:1042400021703327042E01C0220F0A94EAF7822B33
:104250004F5F5F4F4530510531F70895BF92CF92C0
:10426000DF92EF92FF920F931F93CF93DF938C0116
:10427000C0900202D0900302E0900402F090050288
:104280008091FE019091FF01A0910002B091010286
:10429000C82AD92AEA2AFB2ACFE1D0E0D701C601F1
:1042A0000C2E04C0B695A795979587950A94D2F7DA
:1042B00080FF07C0BC2EB8018C2F0E94A106019779
:1042C00019F4219758F7B12C8B2DDF91CF911F91C5
:1042D0000F91FF90EF90DF90CF90BF900895CF9314
:1042E000DF93EC010E942E21BE010E94A106DF9106
:1042F000CF9108951F93CF93DF93EB0190919D0190
:10430000992321F0CB010E946F2113C0882349F02B
:10431000CB010E942E21182F682FCE010E94D120A0
:1043200004C0CB010E940121182FBE01812F0E94E1
:10433000A106DF91CF911F91089580910602859586
:1043400085958595089580910602877008959091CE
:104350000602977081E009F480E0089580911202CE
:10436000089590911202892B8093120208958095EE
:1043700090911202892380931202089510921202E2
:10438000089590911102892B8093110208958095D0
:1043900090911102892380931102089510921102C5
:1043A000089590911002892B8093100208958095B2
:1043B00090911002892380931002089510921002A8
:1043C000089580910702089508950C94E421909136
:1043D0000702981721F0809307020C94E5210895B5
:1043E00080910702882329F01092070280E00C9444
:1043F000E5210895E0911301F091140180911202DA
:104400008083E0911301F091140190818091110259
:10441000892B8083E0911301F091140190818091A8
:104420001002892B808380910702882381F0E0911C
:104430001301F09114019081892B808380911301E5
:10444000909114010E94292381110E94F0218091F2
:104450001301909114010C94471608950C942D2289
:1044600098E0899F90011124262B209306020E9438
:104470003320809106028595859585950C942E2292
:104480001092060280E00C942E2220910602809564
:10449000822380930602982F977079F430E0482F9A
:1044A000082E000C550B2417350739F08595859596
:1044B00085950E9454200C944022089590935301B6
:1044C0008093520108958295982F9C7C392F3695C0
:1044D0003695282F237344E0249FC0011124932F85
:1044E000982B292F2A7A2695892F8575880F822B5C
:1044F000089580E090E00E94B32C21E08C3E9E4F16
:1045000009F020E0822F089582E090E00C94A52C21
:1045100083E090E00C94A52CCF9384E090E00E947F
:10452000A52CC82F81E290E00E94A52C2C2F30E012
:10453000A901582BCA01CF910895CF93C92F682F95
:1045400084E090E00E94B92C6C2F81E290E0CF9142
:104550000C94B92C86E090E00C94A52C682F86E092
:1045600090E00C94B92CAB01BC018FE090E00C946E
:10457000CB2CAB01BC0183E190E00C94CB2C60E030
:1045800070E0CB010C94B92260E070E0CB010E9496
:10459000B3220C94BF226CEE7EEF80E090E00E948C
:1045A000D72C60E082E090E00E94B92C60E083E0CC
:1045B00090E00E94B92C1092020210920302109215
:1045C00004021092050260E084E090E00E94B92CA1
:1045D00060E081E290E00E94B92C60E085E090E02C
:1045E0000E94B92C60E086E090E00E94B92C6FEF49
:1045F00087E090E00E94B92C40E050E0BA0188E0EA
:1046000090E00E94CB2C60E08DE090E00E94B92CFD
:1046100040E050E0BA0188E190E00E94CB2C60E0DD
:1046200087E190E00E94B92C40E050E0BA018CE1B3
:1046300090E00E94CB2C60E080E290E00E94B92CD8
:104640000C94C4220C94CB22682F8EE090E00C9442
:10465000B92CFC01329697E080E0915029F021912D
:104660002223D9F38F5FF9CF08959C01FC01329684
:104670009FEF80E04191461789F09F3F19F4411167
:1046800001C0982F8F5F8630A9F79F3F39F0F9015D
:10469000E90FF11D97FDFA95628308950895FC01D5
:1046A000329608962081261301C010823196E817B1
:1046B000F907C1F708950C9435230C944F23029603
:1046C00026E0FC0111922A95E9F7089508950C94CB
:1046D00066230E94672380915902843061F1109211
:1046E000140220E488E190E00FB6F894A895809336
:1046F00060000FBE2093600080E00E943A1180E0CD
:104700000E94A1050E94672383B7817F846083BFD5
:1047100083B7816083BF7894889583B78E7F83BF8A
:104720000FB6F894A895809160008861809360002E
:10473000109260000FBE089508950895CF930E94CF
:104740009C230E948A0A0E949D23C0E08C2F0E9415
:104750006009811104C0CF5FCA30C1F701C081E098
:10476000CF91089508950C94B2230E94F71B0E94E4
:10477000D90F0E943B160E94A1050C94B3231F92EF
:104780000F920FB60F9211248F939F93AF93BF9305
:1047900080911402811113C080914F0290915002B8
:1047A000A0915102B09152024196A11DB11D80937A
:1047B0004F0290935002A0935102B0935202BF91C6
:1047C000AF919F918F910F900FBE0F901F901895F2
:1047D00082E084BD93E095BD9AEF97BD80936E0013
:1047E00008952FB7F89480914F0290915002A091B4
:1047F0005102B09152022FBF0895CF92DF92EF92F3
:10480000FF920F931F932FB7F89440914F0250914E
:10481000500260915102709152022FBF6A017B01D8
:10482000EE24FF248C0120E030E0C016D106E20621
:10483000F30610F4415051099A01281B390BC901A4
:104840001F910F91FF90EF90DF90CF900895789493
:104850001F920F920FB60F9211248F939F93AF93D5
:10486000BF9380914F0290915002A0915102B0915C
:1048700052020196A11DB11D80934F0290935002E8
:10488000A0935102B0935202BF91AF919F918F912B
:104890000F900FBE0F901F90189581E08093E0005D
:1048A00080E28093D8001092C9008FE19EE40197C6
:1048B000F1F700C0000087E090EBDC01809362021A
:1048C00090936302A0936402B09365029CE088E138
:1048D0000FB6F894A895809360000FBE9093600087
:1048E000FFCF0E947922811102C00E9422230E94E0
:1048F0008422809313020E948C229093540280930E
:1049000053020E948822682F70E080E090E00C94AF
:10491000D21F80912002089508959FB7F8941092B5
:1049200017029FBF90915902943009F057C090919F
:10493000E9009F703091EC00232F217030FD20E8BA
:10494000922B23E02093E9002091EB0020FF43C04D
:104950002091EE0027FF3FC020911502222321F075
:104960002091E80025FF37C01092150226E0309113
:10497000E80035FD15C030915902343061F53091B1
:10498000EB0035FD28C0215021F481E08093150211
:1049900022C0EFE9FFE03197F1F700C00000E7CF58
:1049A0008093F1008091E80085FD0AC08091E800C5
:1049B00080FFFCCF8091E8008E778093E80006C0EE
:1049C0008FB7F89421E0209317028FBF9F709093C8
:1049D000E90080E008959F709093E9008FEF0895BB
:1049E0000F931F93CF93DF9300D01F92CDB7DEB705
:1049F0008C010E947B27823011F0843021F584E005
:104A000089831B830A8382E08093E9008FEF909172
:104A1000E800815095FD06C095ED9A95F1F70000EC
:104A20008111F5CF8091E80085FF0DC040E050E096
:104A300063E070E0CE0101960E9498278091E80023
:104A40008E778093E8000F900F900F90DF91CF91B9
:104A50001F910F910895CF93DF9300D01F92CDB790
:104A6000DEB720915902243031F523E029838058A4
:104A700091099B838A8382E08093E9008FEF909174
:104A8000E800815095FD06C095ED9A95F1F700007C
:104A90008111F5CF8091E80085FF0DC040E050E026
:104AA00063E070E0CE0101960E9498278091E800B3
:104AB0008E778093E8000F900F900F90DF91CF9149
:104AC0000895CF93DF93EC010E947B27823011F091
:104AD000843039F581E08093E9008FEF9091E80010
:104AE000815095FD06C095ED9A95F1F70000811172
:104AF000F5CF8091E80085FF14C040E050E068E009
:104B000070E0CE010E9498278091E8008E77809314
:104B1000E80088E0FE01A8E1B2E001900D928A95DC
:104B2000E1F7DF91CF91089584E697E00E94A80411
:104B300080915802811109C00E942D290E948A2962
:104B40008091E20084608093E200089580E697E01F
:104B50000E94A8041092580208958CE597E00C94E6
:104B6000A80488E597E00C94A80484E597E00E94E7
:104B7000A8040C94B523209116022F5F822F62E3C4
:104B80000E94432C992319F0209316020895109245
:104B9000160280911702882371F1809159028430A6
:104BA00041F58091E9008F702091EC00922F917077
:104BB00020FD90E8892B93E09093E9009091EB0021
:104BC00090FF14C09091EE0097FF10C09091E80004
:104BD00095FF03C01092F100F9CF9091E80090FF8B
:104BE00005C09091E8009E779093E8008F708093C5
:104BF000E90010921702089542E061EC81E00E9402
:104C0000A72842E261EC82E00E94A72842E261EC20
:104C100083E00C94A72880915B02833009F460C084
:104C200030F4813071F0823009F499C008958A30EF
:104C300009F485C08B3009F46BC0893009F0A7C036
:104C400020C080915A02813A09F0A1C08091E80009
:104C5000877F8093E80080915E0290915F02892BAC
:104C600021F468E088E192E003C060E080E090E039
:104C700070E00E94E3278091E8008B778093E80042
:104C8000089580915A02813209F081C080915E02BC
:104C900090915F02029708F07AC08091E800877FC8
:104CA0008093E8008091E80082FD05C08091590260
:104CB0008111F8CF6CC02091F3008091F20090E058
:104CC000922B029729F48091F1008B7F813021F49F
:104CD0008091F100809320028091E8008B7753C08F
:104CE00080915A02813A09F052C080915E029091FF
:104CF0005F02892B09F04BC08091E800877F809389
:104D0000E8008091E80080FFFCCF80911F0136C051
:104D100080915A028132D9F580915E0290915F02B2
:104D2000892BA9F58091E800877F8093E8000E9495
:104D3000DC2880915C0280931F010C94F71B80910A
:104D40005A02813221F58091E800877F8093E80044
:104D50000E94DC2880915D02809321020895809159
:104D60005A02813AA1F48091E800877F8093E8009D
:104D70008091E80080FFFCCF809121028093F100B8
:104D80008091E8008E778093E8000C94DC280895E9
:104D900084B7877F84BF0FB6F894A8958091600090
:104DA000886180936000109260000FBE90E080E800
:104DB0000FB6F89480936100909361000FBE0E943B
:104DC000CA160E942D290E948A298091E2008460DF
:104DD0008093E2008DE894E20E945E2278940E9423
:104DE000182C0E94D01685E191E00E94361683E4CB
:104DF00097E00E94A80480915902853089F48FE3DE
:104E000097E00E94A8040E9469238091570288239A
:104E100091F30E949E23882371F30E948227EBCF97
:104E20000E940417E8CF0C941527292F332723302D
:104E30003105C9F064F42130310581F022303105AB
:104E400009F049C08BE590E020EA37E048C0213204
:104E5000310521F12232310571F13DC082E190E04E
:104E60002BEF37E03CC099278130910571F02CF48D
:104E7000892B89F5ECE9F7E00DC08230910541F00E
:104E8000039749F5E8E6F7E005C0ECE8F7E002C073
:104E9000EEE6F7E0849190E09F0121C06330710558
:104EA000D0F4660F771FFB01E55BFE4F2081318157
:104EB00089E090E014C06330710568F4FB01EE0FE7
:104EC000FF1FEB5BFE4F20813181FB01EE5BFE4F4C
:104ED000808190E004C080E090E020E030E0FA01C2
:104EE00031832083089580915902843011F081E04C
:104EF000089582E0089580912202811102C00C94ED
:104F00007327089580E189BD82E189BD09B400FE5F
:104F1000FDCF8091D8008F7D8093D8008091E000F4
:104F200082608093E0008091E00081FDFCCF0895D5
:104F3000CF92DF92EF92FF920F931F93CF93DF9365
:104F4000EC018B016A010E94FB28811133C0C1145E
:104F5000D10439F0F60180819181081B190BC80F2B
:104F6000D91FE12CF12C0115110519F18091E800F0
:104F700085FD16C08091E8008E778093E800C1140B
:104F8000D10449F0F60180819181E80EF91EF18289
:104F9000E08285E00FC00E94FB28882321F30AC02D
:104FA00089918093F10001501109FFEFEF1AFF0A78
:104FB000DACF80E0DF91CF911F910F91FF90EF90BA
:104FC000DF90CF9008952091600230916102261702
:104FD000370748F06115710539F42091E8002E7704
:104FE0002093E80001C0B90140E061157105A9F105
:104FF00020915902222309F443C0253009F442C00C
:105000002091E80023FD40C02091E80022FD32C03D
:105010002091E80020FFE9CF4091F3002091F200B9
:1050200030E0342BFC01CF016115710559F02830B7
:10503000310540F481918093F100615071092F5F37
:105040003F4FF1CF41E02830310509F040E0209199
:10505000E8002E772093E800C8CF4111C9CF0AC0DD
:1050600080915902882361F0853061F08091E800D9
:1050700083FD0AC08091E80082FFF2CF80E00895AE
:1050800082E0089583E0089581E008952091600210
:10509000309161022617370748F06115710539F420
:1050A0002091E8002E772093E80001C0B901FC01AF
:1050B00020E06115710591F180915902882309F46E
:1050C00040C0853009F43FC08091E80083FD3DC0B9
:1050D0008091E80082FD2FC08091E80080FFE9CF39
:1050E0002091F3008091F20090E0922B6115710500
:1050F00059F08830910540F424912093F1003196C5
:10510000615071090196F2CF21E0089709F020E083
:105110008091E8008E778093E800CBCF2111CCCF2F
:105120000AC080915902882361F0853061F0809136
:10513000E80083FD0AC08091E80082FFF2CF80E0A2
:10514000089582E0089583E0089581E00895982FFE
:10515000973058F59093E900981739F07091EC006A
:105160002091ED005091F00003C0242F762F50E0E5
:1051700021FF19C03091EB003E7F3093EB0030915E
:10518000ED003D7F3093ED003091EB0031603093C6
:10519000EB007093EC002093ED005093F000209111
:1051A000EE0027FF07C09F5FD3CF8F708093E90089
:1051B00081E0089580E0089580915A0287FF11C030
:1051C0008091E80082FD05C0809159028111F8CFDD
:1051D00011C08091E8008B770BC080915902882321
:1051E00049F08091E80080FFF8CF8091E8008E7749
:1051F0008093E80008952091E4003091E50095E661
:105200004091EC00842F817040FF22C08091E80023
:1052100080FD1CC080915902882391F0853091F067
:105220008091EB0085FD10C04091E4005091E500B5
:105230004217530729F39A01915011F784E008951A
:1052400082E0089583E0089581E0089580E0089564
:105250004091E80042FFDECF08950E949B290E9402
:10526000A329E0EEF0E0808181608083E8EDF0E04A
:1052700080818F77808319BCA7EDB0E08C918E7F01
:105280008C9380818F7E80831092580208950F93B3
:105290001F93CF93DF930E949B290E94A329C8EDFF
:1052A000D0E088818F77888388818068888388812F
:1052B0008F7D888319BC109259021092550210926A
:1052C00057021092560200EE10E0F80180818B7FA9
:1052D000808388818160888342E060E080E00E9472
:1052E000A728E1EEF0E080818E7F8083E2EEF0E09F
:1052F000808181608083808188608083F8018081E3
:105300008E7F8083888180618883DF91CF911F9118
:105310000F910895E8EDF0E080818F7E8083E7EDC6
:10532000F0E080818160808384E082BF81E08093AF
:1053300058020C944729E8EDF0E080818E7F80834D
:105340001092E20008951092DA001092E1000895A0
:105350001F920F920FB60F9211242F933F934F93EA
:105360005F936F937F938F939F93AF93BF93EF93CD
:10537000FF938091E10082FF0BC08091E20082FFE9
:1053800007C08091E1008B7F8093E1000E94BB25E4
:105390008091DA0080FF1FC08091D80080FF1BC081
:1053A0008091DA008E7F8093DA008091D90080FFAF
:1053B0000DC080E189BD82E189BD09B400FEFDCF49
:1053C00081E0809359020E94942505C019BC109277
:1053D00059020E94A6258091E10080FF19C08091AA
:1053E000E20080FF15C08091E2008E7F8093E20092
:1053F0008091E20080618093E2008091D800806219
:105400008093D80019BC85E0809359020E94B12591
:105410008091E10084FF30C08091E20084FF2CC0C5
:1054200080E189BD82E189BD09B400FEFDCF809194
:10543000D8008F7D8093D8008091E1008F7E80938B
:10544000E1008091E2008F7E8093E2008091E20093
:1054500081608093E20080915502882311F084E0FE
:1054600007C08091E30087FD02C081E001C083E0B6
:10547000809359020E94B5258091E10083FF29C0E5
:105480008091E20083FF25C08091E100877F8093B7
:10549000E10082E080935902109255028091E10070
:1054A0008E7F8093E1008091E2008E7F8093E20006
:1054B0008091E20080618093E20042E060E080E061
:1054C0000E94A7288091F00088608093F0000E94DD
:1054D000AD25FF91EF91BF91AF919F918F917F91FA
:1054E0006F915F914F913F912F910F900FBE0F9051
:1054F0001F9018951F920F920FB60F9211242F93A1
:105500003F934F935F936F937F938F939F93AF934B
:10551000BF93CF93DF93EF93FF93C091E900CF70D8
:105520008091EC00D82FD17080FDD0E81092E90076
:105530008091F000877F8093F00078940E94BE2ACB
:105540001092E9008091F00088608093F000CD2BEC
:10555000CF70C093E900FF91EF91DF91CF91BF91A0
:10556000AF919F918F917F916F915F914F913F91FB
:105570002F910F900FBE0F901F9018951F93CF93F0
:10558000DF93CDB7DEB7AA970FB6F894DEBF0FBE94
:10559000CDBFEAE5F2E088E08E0F9091F1009193A3
:1055A0008E13FBCF0E940B268091E80083FF28C159
:1055B00080915A0290915B02492F50E04A30510588
:1055C00008F01EC1FA01E857FF4F0C94852C803873
:1055D00021F0823809F014C108C0809156029091E0
:1055E0005702992389F082600FC080915E028F700C
:1055F000873008F005C18093E9008091EB0085FBBE
:10560000882780F91092E9009091E800977F9093A5
:10561000E8008093F1001092F100D0C0282F2D7F78
:1056200009F0EEC0882319F0823061F0E9C0809162
:105630005C02813009F0E4C0933009F080E080938F
:1056400057022EC080915C0281112AC080915E02B7
:105650008F702FEF280F263008F0D2C08093E9001A
:105660002091EB0020FF1CC0933021F48091EB00CF
:10567000806214C09091EB0090619093EB0021E068
:1056800030E0A90102C0440F551F8A95E2F740930C
:10569000EA001092EA008091EB0088608093EB00B2
:1056A0001092E9008091E800877F8093E8000E94D3
:1056B000DC28A6C08111A4C010915C021F778091E4
:1056C000E3008078812B8093E3008091E800877F5E
:1056D0008093E8000E94DC288091E80080FFFCCFE6
:1056E0008091E30080688093E300111102C082E0A2
:1056F00001C083E08093590283C08058823008F053
:105700007FC080915C0290915D028C3D53E09507D3
:1057100079F583E08A838AE289834FB7F894DE01C2
:10572000139620E03EE051E2E32FF0E05093570063
:10573000E49120FF03C0E295EF703F5FEF708E2F82
:1057400090E0EA3010F0C79601C0C0968D939D930B
:105750002F5F243149F74FBF8091E800877F809306
:10576000E8006AE270E0CE0101960E94E32715C0CE
:1057700060915E0270915F02AE014F5F5F4F0E94C9
:105780001327BC01892BE1F19091E800977F90935A
:10579000E80089819A810E9446288091E8008B77F1
:1057A0008093E8002DC0803859F58091E800877F0C
:1057B0008093E800809155028093F1008091E80089
:1057C0008E7773CF81111CC090915C029230C0F42F
:1057D0008091E800877F8093E800909355020E94B3
:1057E000DC2880915502811106C08091E30087FD7D
:1057F00002C081E001C084E0809359020E94FC2530
:105800008091E80083FF0AC08091E800877F809341
:10581000E8008091EB0080628093EB00AA960FB6BF
:10582000F894DEBF0FBECDBFDF91CF911F910895D9
:10583000CF93809159028823A1F0C091E900CF70E5
:105840009091EC00892F817090FD80E8C82B109218
:10585000E9008091E80083FD0E94BE2ACF70C093CA
:10586000E900CF910895DB018F939F930E949A2CBA
:10587000BF91AF91A29F800D911DA39F900DB29FEC
:10588000900D11240895991B79E004C0991F961773
:1058900008F0961B881F7A95C9F780950895AA1B72
:1058A000BB1B51E107C0AA1FBB1FA617B70710F00B
:1058B000A61BB70B881F991F5A95A9F7809590953D
:1058C000BC01CD010895A1E21A2EAA1BBB1BFD014C
:1058D0000DC0AA1FBB1FEE1FFF1FA217B307E407CF
:1058E000F50720F0A21BB30BE40BF50B661F771F27
:1058F000881F991F1A9469F7609570958095909507
:105900009B01AC01BD01CF010895EE0FFF1F059073
:10591000F491E02D0994A29FB001B39FC001A39F11
:10592000700D811D1124911DB29F700D811D1124D8
:10593000911D08950E948B2CA59F900DB49F900DF2
:10594000A49F800D911D11240895F999FECF92BD59
:1059500081BDF89A992780B50895A6E1B0E044E0AA
:1059600050E00C94DF2CA8E1B0E042E050E00C9451
:10597000DF2C262FF999FECF92BD81BDF89A0197B1
:1059800000B4021639F01FBA20BD0FB6F894FA9A87
:10599000F99A0FBE08950396272F0E94BA2C0E94F1
:1059A000B92C252F0E94BA2C242F0C94BA2C0196C6
:1059B000272F0E94BA2C0C94B92CDC01CB01FC01DE
:1059C000F999FECF06C0F2BDE1BDF89A319600B458
:0E59D0000D9241505040B8F70895F894FFCF63
:1059DE00016901016A01066B017101087201000083
:1059EE00000C0C0802892461258C242B25F024013F
:1059FE00F1F4F5F69434929395979600000000001A
:105A0E00000100FF0100010000FFFF000001000186
:105A1E00FF0040362265082F080D08B207CB07E4B9
:025A2E0007006F
:00000001FF
